:1000000093C00000ACC00000AAC00000A8C000005F
:10001000A6C00000A4C00000A2C00000A0C0000054
:100020009EC000009CC000003AC5000098C00000BF
:1000300096C0000094C0000092C0000090C0000074
:100040008EC000008CC000008AC0000088C0000084
:1000500086C0000084C0000082C0000080C0000094
:100060007EC000007CC000007AC0000078C00000A4
:1000700076C0000074C0000072C0000070C00000B4
:100080006EC000006CC000006AC0000068C00000C4
:1000900066C0000064C0000062C0000060C00000D4
:1000A0005EC000005CC000005AC0000012010002E7
:1000B000FF0000400912D1BA00010102DC0109026F
:1000C000200001010080FA0904000002FFFFFF0088
:1000D00007050102400000070582024000000403FA
:1000E00009042A0367007200650067006F00720050
:1000F0007900400070006F007400650061007500B9
:10010000730061002E0063006F006D000000180393
:1001100043006F006D006D004C0069006E006B00C5
:10012000550053004200000011241FBECFEFDAE05B
:10013000DEBFCDBF11E0A0E0B1E0ECE8FFE002C01F
:1001400005900D92A030B107D9F711E0A0E0B1E021
:1001500001C01D92AD30B107E1F760D115C750CF96
:10016000EF92FF920F931F93DF93CF93CDB7DEB73C
:10017000CF5FD0400FB6F894DEBF0FBECDBF8091E9
:100180000601823009F467C08430A1F1813071F03A
:10019000C150DF4F0FB6F894DEBF0FBECDBFCF9179
:1001A000DF911F910F91FF90EF90089580910501CD
:1001B000803C71F79091070129981A9BFECF299AEC
:1001C0008FEF8AB99BB92898289A1A99FECF1BB845
:1001D0001AB82998000089B19091E800977F909310
:1001E000E8008093F1008091E8008E778093E8002A
:1001F000A3D3CECF80910501803451F6E0900B015E
:10020000F0900C018091E800877F8093E8008E01D8
:100210000F5F1F4FC801B70102D28ED3E114F10462
:1002200009F4B6CF90E0E0E0F0E02FEFE00FF11F2F
:10023000808129981A9BFECF299A2AB98BB92898D0
:10024000289A1A99FECF1AB89F5FE92FF0E0EE15B1
:10025000FF0560F39DCF80910501803C09F098CFA8
:1002600060910B0170910C018091E800877F809371
:10027000E8006115710539F190E08E010F5F1F4FA5
:10028000E0E0F0E02FEF29981A9BFECF299A2AB9D7
:100290001BB82898289A1A99FECF1AB829980000F6
:1002A00089B1E00FF11F80839F5FE92FF0E0E6172F
:1002B000F70748F3C80112D18091E8008E77809348
:1002C000E8003AD365CF8E010F5F1F4FF3CF0F9336
:1002D0001F9381E060E842E3F5D2082F82E061E8F5
:1002E00042E3F0D210E090E00823192300FF1EC083
:1002F0008091E8008E778093E80060E070E0E0E4B1
:1003000040E951E0ECB920E030E0CA010197F1F793
:100310002F5F3F4F81E0243F3807B9F76F5F7F4F72
:100320006530710579F71F910F91089560E440E9F8
:1003300051E06CB920E030E0CA010197F1F72F5F7E
:100340003F4F87E220313807B9F7F3CFEF92FF92A2
:100350000F931F93DF93CF93CDB7DEB7C058D04034
:100360000FB6F894DEBF0FBECDBF80E47E010894C7
:10037000E11CF11CF701982F11929A95E9F78E0173
:100380000F5B1F4FF80111928A95E9F780910401E4
:10039000843071F0C058DF4F0FB6F894DEBF0FBE47
:1003A000CDBFCF91DF911F910F91FF90EF900895F6
:1003B00081E08093E9008091E80082FD11C082E035
:1003C0008093E9008091EE0087FFE4CF8091E80000
:1003D00080FFE0CF8091E80085FFDCCF7698DACF10
:1003E000C70160E470E040E050E005D28091E80091
:1003F0008B778093E800F7019FEF808129981A9B03
:10040000FECF299A9AB98BB92898289A1A99FECFC3
:100410001AB83196E017F10781F7D1CF84B7877FFB
:1004200084BF88E10FB6F89480936000109260005A
:100430000FBE80E090E020E80FB6F89420936100B2
:10044000809361000FBE1AB8229884B1836084B98A
:10045000299A85B7806185BF6E9A769803D380917B
:10046000E00082FDFCCF789479D570DFFDCFDA0112
:100470009230F1F0933091F0913041F0E0E0F0E013
:1004800020E030E0ED93FC93C9010895ECEAF0E040
:1004900022E130E0ED93FC93C9010895813081F0B1
:1004A0008130A0F4EEEDF0E08491282F30E0EACF27
:1004B000EEEBF0E020E230E0ED93FC93C90108950B
:1004C000E2EEF0E08491282F30E0DCCF8230B1F60C
:1004D000EEE0F1E08491282F30E0D4CF9C018091B0
:1004E0000B0190910C018617970708F075C0BC01AD
:1004F000F90190E061157105D9F1992309F47AC0E9
:1005000080910401882309F471C0853009F470C01A
:100510008091E80083FD5EC08091E80082FD4CC0C0
:100520008091E80080FFECCF8091F3009091F20081
:10053000582F40E0292F30E0242B352B0AC0819121
:100540008093F100615070402F5F3F4F611571053E
:1005500019F02034310598F390E02034310551F141
:100560008091E8008E778093E8006115710529F687
:10057000992311F1809104018823C1F18530C1F1E3
:100580008091E80083FD26C08091E80082FD14C0C0
:100590008091E80080FFEECF8091F3009091F2000F
:1005A000B82FA0E0292F30E02A2B3B2B90E02034FD
:1005B0003105B1F691E0D4CF8091E80082FD2DC0E5
:1005C00080910401882391F0853091F08091E800BA
:1005D00083FFF2CF81E008956115710509F088CF9E
:1005E0008091E8008E778093E80082CF82E00895C2
:1005F00083E00895809104018823C1F38530C1F31D
:100600008091E80083FDE6CF8091E80082FDD4CFA1
:100610008091E80080FFEECF87CF80E008956115DC
:10062000710539F1FC0180910401882371F0853056
:1006300079F18091E80083FD37C08091E80082FD68
:1006400007C080910401882391F782E008953196D4
:100650002091F3008091F200322F20E090E0822B75
:10066000932B892BB9F08091F10080836150704009
:1006700071F78091E8008B778093E8008091E80023
:1006800080FD14C0809104018823F9F28530B1F710
:1006900083E008958091E8008B778093E8006115EE
:1006A000710509F0C0CFEACF81E0089580E0089598
:1006B0009C0180910B0190910C018617970708F01F
:1006C00077C0BC01F90190E06115710509F43CC0E7
:1006D000992309F47BC080910401882309F472C036
:1006E000853009F471C08091E80083FD5FC080917E
:1006F000E80082FD4DC08091E80080FFECCF809142
:10070000F3009091F200582F40E0292F30E0242B85
:10071000352B0BC084918093F1003196615070406D
:100720002F5F3F4F6115710519F02034310590F3AB
:1007300090E02034310551F18091E8008E7780936C
:10074000E8006115710521F6992311F180910401EA
:100750008823C1F18530C1F18091E80083FD26C076
:100760008091E80082FD14C08091E80080FFEECF08
:100770008091F3009091F200B82FA0E0292F30E093
:100780002A2B3B2B90E020343105B1F691E0D4CFF9
:100790008091E80082FD2DC080910401882391F0B2
:1007A000853091F08091E80083FFF2CF81E00895D9
:1007B0006115710509F086CF8091E8008E778093EE
:1007C000E80080CF82E0089583E0089580910401DD
:1007D0008823C1F38530C1F38091E80083FDE6CF23
:1007E0008091E80082FDD4CF8091E80080FFEECFB9
:1007F00086CF80E00895BF92CF92DF92EF92FF9272
:100800000F931F93CF93DF93182F092FEB017A01DA
:10081000B5D0B82E882309F044C0812F902F9C01B9
:100820008901E114F10439F0F70180819181C81B3D
:10083000D90B080F191F2097A1F1E114F10449F019
:100840001FC08091F100F80181938F0121972097BB
:1008500041F18091E80085FDF4CF8091E8008B772D
:100860008093E8007BD38AD0882389F3DF91CF91EE
:100870001F910F91FF90EF90DF90CF90BF90089560
:10088000CC24DD248091E80085FF0DC08091F1002B
:10089000F80181938F010894C11CD11CCC16DD0690
:1008A00089F78B2DE3CF8091E8008B778093E80068
:1008B00055D3F701808191818C0D9D1D918380839B
:1008C00085E0D4CF782F873080F5982F24C05091C1
:1008D000EC002091ED003091F00021FF19C08091D3
:1008E000EB008E7F8093EB008091ED008D7F8093F5
:1008F000ED008091EB0081608093EB005093EC0061
:100900002093ED003093F0008091EE0087FF12C03D
:100910009F5F973050F4892F8F708093E90097176D
:10092000B1F6562F242F30E0D8CF7F707093E900B6
:1009300081E0089580E008958091050188234CF0BE
:100940008091E80080FD0EC0809104018823C1F7EA
:1009500008958091E80082FD0BC0809104018823F6
:10096000C1F708958091E8008E778093E80008959C
:100970008091E8008B778093E80008952091E4004F
:100980003091E50044E68091EC0080FF1BC080912F
:10099000E80080FD1BC0809104018823C9F08530E8
:1009A000C9F08091EB0085FD17C08091E400909123
:1009B000E5002817390739F341509C014F3F19F7DB
:1009C00084E008958091E80082FFE5CF80E00895FB
:1009D00082E0089583E0089581E00895EF92FF9208
:1009E0000F931F934FD056D008ED10E0F80180818F
:1009F0008F77808380818068808380818F7D8083F2
:100A000019BC109204011092000110920201109280
:100A1000010180EEE82EF12CF70180818B7F80832D
:100A2000F80180818160808380E060E042E34ADFFA
:100A3000E1EEF0E080818E7F8083E2EEF0E0808165
:100A400081608083808188608083F70180818E7FD0
:100A50008083F8018081806180831F910F91FF90D6
:100A6000EF900895E8EDF0E080818F7E8083E7EDE0
:100A7000F0E080818160808384E082BF81E08093A8
:100A80000301ACCFE8EDF0E080818E7F808310928F
:100A9000E20008951092DA001092E10008951F928A
:100AA0000F920FB60F9211242F933F934F935F93A2
:100AB0006F937F938F939F93AF93BF93EF93FF9326
:100AC0008091E10082FF04C08091E20082FD8CC031
:100AD0008091DA0080FF04C08091D80080FD6FC053
:100AE0008091E10080FF04C08091E20080FD83C01E
:100AF0008091E10084FF2CC08091E20084FF28C037
:100B000080E189BD82E189BD09B400FEFDCF8091FD
:100B1000D8008F7D8093D8008091E1008F7E8093F4
:100B2000E1008091E2008F7E8093E2008091E200FC
:100B300081608093E20080910001882309F070C0F9
:100B40008091E30087FD75C081E08093040105D2A8
:100B50008091E10083FF22C08091E20083FF1EC0EC
:100B60008091E100877F8093E10082E0809304011F
:100B7000109200018091E1008E7F8093E1008091CE
:100B8000E2008E7F8093E2008091E200806180939A
:100B9000E20080E060E042E395DEDFD1FF91EF917B
:100BA000BF91AF919F918F917F916F915F914F9185
:100BB0003F912F910F900FBE0F901F90189580912D
:100BC000DA008E7F8093DA008091D90080FF2CC0FC
:100BD00080E189BD82E189BD09B400FEFDCF81E0DD
:100BE00080930401BAD17CCF8091E1008B7F809308
:100BF000E100B3D16DCF8091E2008E7F8093E2005F
:100C00008091E20080618093E2008091D800806250
:100C10008093D80019BC85E0809304019ED168CFF1
:100C200084E08093040193CF19BC1092040195D104
:100C300057CF83E08ACF1F93DF93CF93CDB7DEB733
:100C4000AC970FB6F894DEBF0FBECDBF8091F10018
:100C5000809305018091F100809306018091F1005D
:100C6000809307018091F100809308018091F10049
:100C7000809309018091F10080930A018091F10035
:100C800080930B018091F10080930C0169DA8091CF
:100C9000E80083FF12C08091050190910601953014
:100CA00009F45EC0963008F1983009F4E4C0993038
:100CB00009F4C7C0963009F475C08091E80083FF3D
:100CC0000AC08091E800877F8093E8008091EB0064
:100CD00080628093EB00AC960FB6F894DEBF0FBE37
:100CE000CDBFCF91DF911F910895913029F09130C0
:100CF00008F47DC0933009F7882309F4CFC082300F
:100D0000E1F680910701882311F5209109012F70E8
:100D1000A1F22093E9008091EB0080FF18C093308E
:100D200009F413C18091EB0080618093EB0081E0B6
:100D300090E002C0880F991F2A95E2F78093EA009D
:100D40001092EA008091EB0088608093EB00109293
:100D5000E9008091E800877F8093E800EDDDADCF6A
:100D6000882309F0AACF109107011F778091E30033
:100D70008078812B8093E3008091E800877F8093C7
:100D8000E800DADD8091E80080FFFCCF8091E3008D
:100D900080688093E300112309F08DC082E0809386
:100DA00004018BCF8058823008F087CF80910701F3
:100DB0009091080123E08C3D920709F487C060916F
:100DC0000901AE014F5F5F4F52DBBC01009709F490
:100DD00074CF8091E800877F8093E80089819A81B1
:100DE00067DC8091E8008B778093E80066CF8038DD
:100DF00009F463C0823809F060CF809109018F70D7
:100E00008093E9008091EB0090E09695879592950C
:100E100082958F7089279F708927982F91701092E3
:100E2000E9008091E800877F8093E8009093F100CB
:100E30001092F1008091E8008E778093E8007CDDCD
:100E40003CCF882309F039CF90910701923008F008
:100E500034CF8091E800877F8093E8009093000171
:100E60006BDD80910001882309F467C084E08093E2
:100E700004012DDA22CF803809F01FCF8091E800DD
:100E8000877F8093E800809100018093F10080913A
:100E9000E8008E778093E8004FDD0FCF8091070147
:100EA000813009F00ACF10920201933009F04FCF40
:100EB000809302014CCF83E072CF90910101809129
:100EC0000201882309F4ADCF9260ABCF83E08C831D
:100ED0008AE28B836FB7F894DE0115964EE020E02E
:100EE00030E051E209C090E0C7968D939D932F5F4B
:100EF0003F4F2431310581F0E42FF0E0509357004B
:100F0000849120FF03C082958F704F5F8F708A306D
:100F100050F790E0C096E9CF6FBF8091E800877FDF
:100F20008093E800CE0103966AE270E0D7DA809100
:100F3000E8008B778093E800C0CE8091E30087FDC6
:100F40000AC081E08093040194CF8091EB0080621D
:100F50008093EB00FCCE84E0F5CF08951F93809141
:100F60000401882369F01091E9008091EC0010924F
:100F7000E9008091E80083FD05C01F701093E9002F
:0C0F80001F91089558DEF9CFF894FFCFC0
:00000001FF
