:1000000091C00000AAC00000A8C00000A6C0000067
:10001000A4C00000A2C00000A0C000009EC000005C
:100020009CC000009AC0000093C3000056C30000AB
:1000300094C0000092C0000090C000008EC000007C
:100040008CC000008AC0000088C0000086C000008C
:1000500084C0000082C0000080C000007EC000009C
:100060007CC000007AC0000078C0000076C00000AC
:1000700074C0000072C0000070C000006EC00000BC
:100080006CC000006AC0000068C0000066C00000CC
:1000900064C0000062C0000060C000005EC00000DC
:1000A0005CC000005AC0000058C0000012011001DE
:1000B000FF000008C016DC05000101020001090272
:1000C000270001010080FA0904000003FFAA0000D4
:1000D00007050102000100070502020001000705F3
:1000E000030208000004030904200363006F006496
:1000F00000650061006E0064006C006900660065C8
:10010000002E0063006F006D0000001603550053C1
:100110000042006500780061006D0070006C0065B1
:100120000000000011241FBECFEFDAE0DEBFCDBF1C
:1001300011E0A0E0B1E0E6EEFBE002C005900D9218
:10014000A030B107D9F711E0A0E0B1E001C01D92E5
:10015000AD30B107E1F7C1D044C552CF982F2998EF
:100160001A9BFECF299A8FEF8AB99BB92898289AB3
:100170001A99FECF1AB829980000000089B1089595
:10018000982F29981A9BFECF299A8FEF8AB99BB98D
:100190002898289A1A99FECF1AB8089580910701D5
:1001A000DDDFE8EEF0E09081977F90838093F100AF
:1001B00080818E7780830FC2CF92DF92EF92FF9281
:1001C0000F93DF93CF93CDB7DEB7CF5FD0400FB69D
:1001D000F894DEBF0FBECDBFC0900B01D0900C01D4
:1001E0008091E800877F8093E8007E010894E11CFD
:1001F000F11CC701B60109D1EED100E005C0EE0D3A
:10020000FF1D8081BDDF0F5FE02FF0E0EC15FD05E5
:10021000B0F3C150DF4F0FB6F894DEBF0FBECDBFB5
:10022000CF91DF910F91FF90EF90DF90CF900895E5
:1002300080910601843019F0853059F405C0809111
:100240000501803431F4B8CF80910501803C09F478
:10025000A5CF089581E060E842E585D180FD0CC01E
:1002600040E420E931E04CB980E197E2F9013197AF
:10027000F1F70197D9F7F7CF20E030E060E440E9EB
:1002800051E06CB984EF91E0FA013197F1F70197F1
:10029000D9F72F5F3F4F2530310599F7089584B77F
:1002A000877F84BF88E10FB6F89480936000109236
:1002B00060000FBE80E090E020E80FB6F894209335
:1002C0006100809361000FBE1AB8229884B18360E8
:1002D00084B9299A6E9A7698E3C1E1DF78946CD458
:1002E000FECFDA01923049F0933061F09130F9F4A9
:1002F000ECEAF0E022E130E01EC0EEEBF0E027E2B5
:1003000030E019C0813049F0813018F0823079F442
:1003100008C0E5EEF0E0849107C0E9EEF0E08491DA
:1003200003C0EBE0F1E08491282F30E004C0E0E06E
:10033000F0E020E030E0ED93FC93C90108959C01CA
:1003400040910B0150910C014617570718F4F90121
:1003500090E045C06115710511F0AB01F8CF8091B7
:10036000E8008E778093E80040E050E0F0CF809185
:100370000401882309F445C0853009F444C0809104
:10038000E80083FF02C081E008958091E80082FDCB
:1003900032C08091E80080FF22C08091F3009091EC
:1003A000F200782F60E0292F30E0262B372B07C092
:1003B00081918093F100415050402F5F3F4F411594
:1003C000510519F02830310598F390E028303105B7
:1003D00009F491E08091E8008E778093E800411560
:1003E000510529F6992319F606C080910401882346
:1003F00041F0853041F08091E80082FFF6CF80E047
:10040000089582E0089583E008959C0161157105C7
:1004100029F48091E8008B778093E800F90127C0E8
:1004200080910401882399F1853099F18091E80049
:1004300083FF02C081E008958091E80082FFF0CF41
:1004400006C08091F10081936150704059F0209175
:10045000F3008091F200322F20E090E0822B932B6A
:10046000892B79F78091E8008B778093E8006115FC
:100470007105B1F606C080910401882341F08530F2
:1004800041F08091E80080FFF6CF80E0089582E09F
:10049000089583E008959C0140910B0150910C0157
:1004A0004617570718F4F90190E046C06115710529
:1004B00011F0AB01F8CF8091E8008E778093E800CF
:1004C00040E050E0F0CF80910401882309F447C058
:1004D000853009F446C08091E80083FF02C081E0C6
:1004E00008958091E80082FD34C08091E80080FF8B
:1004F00023C08091F3009091F200782F60E0292FC3
:1005000030E0262B372B08C084918093F100319680
:10051000415050402F5F3F4F4115510519F0283091
:10052000310590F390E02830310509F491E0809195
:10053000E8008E778093E8004115510521F6992354
:1005400009F0C1CF06C080910401882341F08530B5
:1005500041F08091E80082FFF6CF80E0089582E0CC
:10056000089583E00895382F282F2EC0822F8F7092
:100570008093E900231721F4762F942F50E006C0D2
:100580007091EC009091ED005091F00091FF1BC034
:100590008091EB008E7F8093EB008091ED008D7F4A
:1005A0008093ED008091EB0081608093EB0070936D
:1005B000EC009093ED005093F0008091EE0087FDE9
:1005C00002C080E008952F5F273080F23F703093A3
:1005D000E90081E008958091050188239CF404C01E
:1005E000809104018823B9F08091E80082FFF8CF60
:1005F0008091E8008B778093E80008958091040152
:10060000882349F08091E80080FFF8CF8091E800CE
:100610008E778093E8000895EF92FF920F931F93D7
:100620004FD056D008ED10E0F80180818F7780839D
:1006300080818068808380818F7D808319BC109247
:10064000040110920001109202011092010180EE4B
:10065000E82EF12CF70180818B7F8083F801808167
:100660008160808380E060E042E07DDFE1EEF0E0E9
:1006700080818E7F8083E2EEF0E0808181608083E4
:10068000808188608083F70180818E7F8083F8017C
:100690008081806180831F910F91FF90EF9008957A
:1006A000E8EDF0E080818F7E8083E7EDF0E08081EF
:1006B0008160808384E082BF81E080930301ACCFBE
:1006C000E8EDF0E080818E7F80831092E200089553
:1006D0001092DA001092E10008951F920F920FB667
:1006E0000F9211241F932F933F934F935F936F9318
:1006F0007F938F939F93AF93BF93EF93FF9310914B
:10070000E9008091EC001092E9008091F000877F71
:100710008093F0007894E7D01092E9008091F00087
:1007200088608093F0001F701093E900FF91EF91B3
:10073000BF91AF919F918F917F916F915F914F91F9
:100740003F912F911F910F900FBE0F901F90189502
:100750001F920F920FB60F9211242F933F934F9336
:100760005F936F937F938F939F93AF93BF93EF9319
:10077000FF938091E10082FF0AC08091E20082FF36
:1007800006C08091E1008B7F8093E10014D28091BC
:10079000DA0080FF1DC08091D80080FF19C08091D1
:1007A000DA008E7F8093DA008091D90080FF0CC040
:1007B00080E189BD82E189BD09B400FEFDCF81E001
:1007C00080930401F8D104C019BC10920401F3D144
:1007D0008091E10080FF18C08091E20080FF14C08A
:1007E0008091E2008E7F8093E2008091E200806140
:1007F0008093E2008091D80080628093D80019BC79
:1008000085E080930401D7D18091E10084FF2FC05F
:100810008091E20084FF2BC080E189BD82E189BD27
:1008200009B400FEFDCF8091D8008F7D8093D80061
:100830008091E1008F7E8093E1008091E2008F7EC5
:100840008093E2008091E20081608093E2008091D9
:100850000001882311F084E007C08091E30087FD48
:1008600002C081E001C083E080930401A4D18091A3
:10087000E10083FF27C08091E20083FF23C08091C5
:10088000E100877F8093E10082E080930401109271
:1008900000018091E1008E7F8093E1008091E20071
:1008A0008E7F8093E2008091E20080618093E2007D
:1008B00080E060E042E057DE8091F0008860809345
:1008C000F00079D1FF91EF91BF91AF919F918F91FE
:1008D0007F916F915F914F913F912F910F900FBE3C
:1008E0000F901F9018951F93DF93CF93CDB7DEB76E
:1008F000AC970FB6F894DEBF0FBECDBFE5E0F1E0D8
:100900008091F100819321E0ED30F207C9F790DC8E
:100910008091E80083FF37C1809105013091060185
:10092000353009F487C0363040F43130C9F1313008
:1009300070F0333009F027C133C0383009F4F5C006
:10094000393009F404C1363009F01DC196C0803831
:1009500021F0823809F017C108C0909101018091FF
:100960000201882399F0926011C0809109018F7073
:100970008093E9008091EB0090E025E096958795C3
:100980002A95E1F7982F91701092E9008091E80084
:10099000877F8093E8009093F1001092F100D0C01F
:1009A000882319F0823009F0EEC090E08F719070CA
:1009B000009721F0029709F0E6C00CC08091070172
:1009C000813009F0E0C010920201333069F5809364
:1009D00002012AC080910701882331F52091090185
:1009E0002F7009F4D0C02093E9008091EB0080FFC4
:1009F0001BC0333021F48091EB00806213C08091E2
:100A0000EB0080618093EB0081E090E002C0880FF2
:100A1000991F2A95E2F78093EA001092EA008091EC
:100A2000EB0088608093EB001092E9008091E80071
:100A3000877F89C0882309F0A6C0109107011F771E
:100A40008091E3008078812B8093E3008091E8001F
:100A5000877F8093E800BFDD8091E80080FFFCCFB6
:100A60008091E30080688093E300112311F482E019
:100A700001C083E08093040186C08058823008F072
:100A800082C0809107019091080123E08C3D92077C
:100A900009F033C083E08C838AE28B837FB7F894BC
:100AA000DE0115966EE040E050E011E2E62FF0E046
:100AB00010935700849140FF03C082958F706F5F41
:100AC0008F70282F30E08A3018F0C901C79602C015
:100AD000C901C0968D939D934F5F5F4F443151057F
:100AE00029F77FBF8091E800877F8093E800CE01DF
:100AF00003966AE270E023DC12C060910901AE0146
:100B00004F5F5F4FEEDBBC01009709F43CC0809162
:100B1000E800877F8093E80089819A81BCDC80911E
:100B2000E8008B778093E8002EC0803861F58091D3
:100B3000E800877F8093E800809100018093F100B6
:100B40008091E8008E778093E80045DD1CC0882303
:100B5000D1F4909107019230B0F48091E800877F42
:100B60008093E8009093000136DD80910001882396
:100B700031F48091E30087FD02C081E001C084E090
:100B80008093040167DB8091E80083FF0AC08091B5
:100B9000E800877F8093E8008091EB00806280937B
:100BA000EB00AC960FB6F894DEBF0FBECDBFCF9171
:100BB000DF911F91089508951F9380910401882368
:100BC00071F01091E9008091EC001092E9008091A1
:100BD000E80083FF01C087DE1F701093E9001F91BA
:060BE0000895F894FFCF18
:00000001FF
